{
  "address": "0xCf7Ed3AccA5a467e9e704C703E8D87F634fB0Fc9",
  "abi": [
    {
      "inputs": [
        {
          "internalType": "address",
          "name": "vrfCoordinatorV2",
          "type": "address"
        },
        {
          "internalType": "uint64",
          "name": "subscriptionId",
          "type": "uint64"
        },
        {
          "internalType": "bytes32",
          "name": "gasLane",
          "type": "bytes32"
        },
        {
          "internalType": "uint256",
          "name": "interval",
          "type": "uint256"
        },
        {
          "internalType": "uint256",
          "name": "entranceFee",
          "type": "uint256"
        },
        {
          "internalType": "uint32",
          "name": "callbackGasLimit",
          "type": "uint32"
        }
      ],
      "stateMutability": "nonpayable",
      "type": "constructor"
    },
    {
      "inputs": [
        {
          "internalType": "address",
          "name": "have",
          "type": "address"
        },
        {
          "internalType": "address",
          "name": "want",
          "type": "address"
        }
      ],
      "name": "OnlyCoordinatorCanFulfill",
      "type": "error"
    },
    {
      "inputs": [],
      "name": "Raffle__RaffleNotOpen",
      "type": "error"
    },
    {
      "inputs": [],
      "name": "Raffle__SendMoreToEnterRaffle",
      "type": "error"
    },
    {
      "inputs": [],
      "name": "Raffle__TransferFailed",
      "type": "error"
    },
    {
      "inputs": [
        {
          "internalType": "uint256",
          "name": "currentBalance",
          "type": "uint256"
        },
        {
          "internalType": "uint256",
          "name": "numPlayers",
          "type": "uint256"
        },
        {
          "internalType": "uint256",
          "name": "raffleState",
          "type": "uint256"
        }
      ],
      "name": "Raffle__UpkeepNotNeeded",
      "type": "error"
    },
    {
      "anonymous": false,
      "inputs": [
        {
          "indexed": true,
          "internalType": "address",
          "name": "player",
          "type": "address"
        }
      ],
      "name": "RaffleEnter",
      "type": "event"
    },
    {
      "anonymous": false,
      "inputs": [
        {
          "indexed": true,
          "internalType": "uint256",
          "name": "requestId",
          "type": "uint256"
        }
      ],
      "name": "RequestedRaffleWinner",
      "type": "event"
    },
    {
      "anonymous": false,
      "inputs": [
        {
          "indexed": true,
          "internalType": "address",
          "name": "player",
          "type": "address"
        }
      ],
      "name": "WinnerPicked",
      "type": "event"
    },
    {
      "inputs": [
        {
          "internalType": "bytes",
          "name": "",
          "type": "bytes"
        }
      ],
      "name": "checkUpkeep",
      "outputs": [
        {
          "internalType": "bool",
          "name": "upkeepNeeded",
          "type": "bool"
        },
        {
          "internalType": "bytes",
          "name": "",
          "type": "bytes"
        }
      ],
      "stateMutability": "view",
      "type": "function"
    },
    {
      "inputs": [],
      "name": "enterRaffle",
      "outputs": [],
      "stateMutability": "payable",
      "type": "function"
    },
    {
      "inputs": [],
      "name": "getContractBalance",
      "outputs": [
        {
          "internalType": "uint256",
          "name": "",
          "type": "uint256"
        }
      ],
      "stateMutability": "view",
      "type": "function"
    },
    {
      "inputs": [],
      "name": "getEntranceFee",
      "outputs": [
        {
          "internalType": "uint256",
          "name": "",
          "type": "uint256"
        }
      ],
      "stateMutability": "view",
      "type": "function"
    },
    {
      "inputs": [],
      "name": "getInterval",
      "outputs": [
        {
          "internalType": "uint256",
          "name": "",
          "type": "uint256"
        }
      ],
      "stateMutability": "view",
      "type": "function"
    },
    {
      "inputs": [],
      "name": "getLastTimeStamp",
      "outputs": [
        {
          "internalType": "uint256",
          "name": "",
          "type": "uint256"
        }
      ],
      "stateMutability": "view",
      "type": "function"
    },
    {
      "inputs": [],
      "name": "getNumWords",
      "outputs": [
        {
          "internalType": "uint256",
          "name": "",
          "type": "uint256"
        }
      ],
      "stateMutability": "pure",
      "type": "function"
    },
    {
      "inputs": [],
      "name": "getNumberOfPlayers",
      "outputs": [
        {
          "internalType": "uint256",
          "name": "",
          "type": "uint256"
        }
      ],
      "stateMutability": "view",
      "type": "function"
    },
    {
      "inputs": [
        {
          "internalType": "uint256",
          "name": "index",
          "type": "uint256"
        }
      ],
      "name": "getPlayer",
      "outputs": [
        {
          "internalType": "address",
          "name": "",
          "type": "address"
        }
      ],
      "stateMutability": "view",
      "type": "function"
    },
    {
      "inputs": [],
      "name": "getRaffleState",
      "outputs": [
        {
          "internalType": "enum Raffle.RaffleState",
          "name": "",
          "type": "uint8"
        }
      ],
      "stateMutability": "view",
      "type": "function"
    },
    {
      "inputs": [],
      "name": "getRecentWinner",
      "outputs": [
        {
          "internalType": "address",
          "name": "",
          "type": "address"
        }
      ],
      "stateMutability": "view",
      "type": "function"
    },
    {
      "inputs": [],
      "name": "getRequestConfirmations",
      "outputs": [
        {
          "internalType": "uint256",
          "name": "",
          "type": "uint256"
        }
      ],
      "stateMutability": "pure",
      "type": "function"
    },
    {
      "inputs": [
        {
          "internalType": "bytes",
          "name": "",
          "type": "bytes"
        }
      ],
      "name": "performUpkeep",
      "outputs": [],
      "stateMutability": "nonpayable",
      "type": "function"
    },
    {
      "inputs": [
        {
          "internalType": "uint256",
          "name": "requestId",
          "type": "uint256"
        },
        {
          "internalType": "uint256[]",
          "name": "randomWords",
          "type": "uint256[]"
        }
      ],
      "name": "rawFulfillRandomWords",
      "outputs": [],
      "stateMutability": "nonpayable",
      "type": "function"
    }
  ],
  "transactionHash": "0x083e90ec2c3980294391baf4e4baea4c5760d0616eb6c52b6fd559b572f38c17",
  "args": [
    "0x5FbDB2315678afecb367f032d93F642f64180aa3",
    "1",
    "0x79d3d8832d904592c0bf9818b621522c988bb8b0c05cdc3b15aea1b6e8db0c15",
    "30",
    "10000000000000000",
    "5000000"
  ],
  "numDeployments": 1,
  "solcInputHash": "363543490cd3d2fc1b13de9dcd3b7f42",
  "bytecode": "0x6101606040523480156200001257600080fd5b50604051620018cb380380620018cb8339818101604052810190620000389190620001ad565b858073ffffffffffffffffffffffffffffffffffffffff1660808173ffffffffffffffffffffffffffffffffffffffff1660601b81525050508573ffffffffffffffffffffffffffffffffffffffff1660a08173ffffffffffffffffffffffffffffffffffffffff1660601b815250508360e081815250508261012081815250508467ffffffffffffffff1660c08167ffffffffffffffff1660c01b815250508161014081815250506000600360006101000a81548160ff021916908360018111156200010a5762000109620002b5565b5b0217905550426000819055508063ffffffff166101008163ffffffff1660e01b815250505050505050506200036b565b6000815190506200014b81620002e9565b92915050565b600081519050620001628162000303565b92915050565b60008151905062000179816200031d565b92915050565b600081519050620001908162000337565b92915050565b600081519050620001a78162000351565b92915050565b60008060008060008060c08789031215620001cd57620001cc620002e4565b5b6000620001dd89828a016200013a565b9650506020620001f089828a0162000196565b95505060406200020389828a0162000151565b94505060606200021689828a0162000168565b93505060806200022989828a0162000168565b92505060a06200023c89828a016200017f565b9150509295509295509295565b6000620002568262000267565b9050919050565b6000819050919050565b600073ffffffffffffffffffffffffffffffffffffffff82169050919050565b6000819050919050565b600063ffffffff82169050919050565b600067ffffffffffffffff82169050919050565b7f4e487b7100000000000000000000000000000000000000000000000000000000600052602160045260246000fd5b600080fd5b620002f48162000249565b81146200030057600080fd5b50565b6200030e816200025d565b81146200031a57600080fd5b50565b620003288162000287565b81146200033457600080fd5b50565b620003428162000291565b81146200034e57600080fd5b50565b6200035c81620002a1565b81146200036857600080fd5b50565b60805160601c60a05160601c60c05160c01c60e0516101005160e01c61012051610140516114e4620003e760003960008181610340015261043d01526000818161083301526108e4015260006106e20152600061069e015260006106bf0152600061066201526000818161037d01526103d101526114e46000f3fe6080604052600436106100dd5760003560e01c80635f1b0fd81161007f57806391ad27b41161005957806391ad27b41461027e578063c1c244e8146102a9578063e55ae4e8146102d4578063fd6673f514610311576100dd565b80635f1b0fd8146101ea5780636e04ff0d146102155780636f9fb98a14610253576100dd565b80632cfcc539116100bb5780632cfcc539146101615780634585e33b1461016b578063473f1ddc1461019457806353a2c19a146101bf576100dd565b806309bc33a7146100e2578063115cbaf51461010d5780631fe543e314610138575b600080fd5b3480156100ee57600080fd5b506100f761033c565b60405161010491906110ea565b60405180910390f35b34801561011957600080fd5b50610122610364565b60405161012f91906110cf565b60405180910390f35b34801561014457600080fd5b5061015f600480360381019061015a9190610ec3565b61037b565b005b61016961043b565b005b34801561017757600080fd5b50610192600480360381019061018d9190610dd3565b6105aa565b005b3480156101a057600080fd5b506101a96107aa565b6040516101b69190611008565b60405180910390f35b3480156101cb57600080fd5b506101d46107d4565b6040516101e191906110ea565b60405180910390f35b3480156101f657600080fd5b506101ff6107e3565b60405161020c91906110ea565b60405180910390f35b34801561022157600080fd5b5061023c60048036038101906102379190610e20565b6107f0565b60405161024a92919061104c565b60405180910390f35b34801561025f57600080fd5b506102686108d8565b60405161027591906110ea565b60405180910390f35b34801561028a57600080fd5b506102936108e0565b6040516102a091906110ea565b60405180910390f35b3480156102b557600080fd5b506102be610908565b6040516102cb91906110ea565b60405180910390f35b3480156102e057600080fd5b506102fb60048036038101906102f69190610e69565b610911565b6040516103089190611008565b60405180910390f35b34801561031d57600080fd5b50610326610959565b60405161033391906110ea565b60405180910390f35b60007f0000000000000000000000000000000000000000000000000000000000000000905090565b6000600360009054906101000a900460ff16905090565b7f000000000000000000000000000000000000000000000000000000000000000073ffffffffffffffffffffffffffffffffffffffff163373ffffffffffffffffffffffffffffffffffffffff161461042d57337f00000000000000000000000000000000000000000000000000000000000000006040517f1cf993f4000000000000000000000000000000000000000000000000000000008152600401610424929190611023565b60405180910390fd5b610437828261096b565b5050565b7f0000000000000000000000000000000000000000000000000000000000000000341015610495576040517f3038c00a00000000000000000000000000000000000000000000000000000000815260040160405180910390fd5b600060018111156104a9576104a86113c4565b5b600360009054906101000a900460ff1660018111156104cb576104ca6113c4565b5b14610502576040517fd24a271400000000000000000000000000000000000000000000000000000000815260040160405180910390fd5b6002339080600181540180825580915050600190039060005260206000200160009091909190916101000a81548173ffffffffffffffffffffffffffffffffffffffff021916908373ffffffffffffffffffffffffffffffffffffffff1602179055503373ffffffffffffffffffffffffffffffffffffffff167f0805e1d667bddb8a95f0f09880cf94f403fb596ce79928d9f29b74203ba284d460405160405180910390a2565b60006105c4604051806020016040528060008152506107f0565b509050806106335747600280549050600360009054906101000a900460ff1660018111156105f5576105f46113c4565b5b6040517f584327aa00000000000000000000000000000000000000000000000000000000815260040161062a93929190611105565b60405180910390fd5b6001600360006101000a81548160ff02191690836001811115610659576106586113c4565b5b021790555060007f000000000000000000000000000000000000000000000000000000000000000073ffffffffffffffffffffffffffffffffffffffff16635d3b1d307f00000000000000000000000000000000000000000000000000000000000000007f000000000000000000000000000000000000000000000000000000000000000060037f000000000000000000000000000000000000000000000000000000000000000060016040518663ffffffff1660e01b815260040161072395949392919061107c565b602060405180830381600087803b15801561073d57600080fd5b505af1158015610751573d6000803e3d6000fd5b505050506040513d601f19601f820116820180604052508101906107759190610e96565b9050807fcd6e45c8998311cab7e9d4385596cac867e20a0587194b954fa3a731c93ce78b60405160405180910390a250505050565b6000600160009054906101000a900473ffffffffffffffffffffffffffffffffffffffff16905090565b6000600163ffffffff16905090565b6000600361ffff16905090565b600060606000600360009054906101000a900460ff166001811115610818576108176113c4565b5b6000600181111561082c5761082b6113c4565b5b14905060007f00000000000000000000000000000000000000000000000000000000000000006000544261086091906111e5565b119050600080600280549050119050600080471190508280156108805750835b80156108895750805b80156108925750815b9550856040518060400160405280600381526020017f30783000000000000000000000000000000000000000000000000000000000008152509550955050505050915091565b600047905090565b60007f0000000000000000000000000000000000000000000000000000000000000000905090565b60008054905090565b600060028281548110610927576109266113f3565b5b9060005260206000200160009054906101000a900473ffffffffffffffffffffffffffffffffffffffff169050919050565b60008060028054905090508091505090565b600060028054905082600081518110610987576109866113f3565b5b60200260200101516109999190611335565b90506000600282815481106109b1576109b06113f3565b5b9060005260206000200160009054906101000a900473ffffffffffffffffffffffffffffffffffffffff16905080600160006101000a81548173ffffffffffffffffffffffffffffffffffffffff021916908373ffffffffffffffffffffffffffffffffffffffff160217905550600067ffffffffffffffff811115610a3a57610a39611422565b5b604051908082528060200260200182016040528015610a685781602001602082028036833780820191505090505b5060029080519060200190610a7e929190610b9e565b506000600360006101000a81548160ff02191690836001811115610aa557610aa46113c4565b5b02179055504260008190555060008173ffffffffffffffffffffffffffffffffffffffff1647604051610ad790610ff3565b60006040518083038185875af1925050503d8060008114610b14576040519150601f19603f3d011682016040523d82523d6000602084013e610b19565b606091505b5050905080610b54576040517fa1d04b3900000000000000000000000000000000000000000000000000000000815260040160405180910390fd5b8173ffffffffffffffffffffffffffffffffffffffff167f5b690ec4a06fe979403046eaeea5b3ce38524683c3001f662c8b5a829632f7df60405160405180910390a25050505050565b828054828255906000526020600020908101928215610c17579160200282015b82811115610c165782518260006101000a81548173ffffffffffffffffffffffffffffffffffffffff021916908373ffffffffffffffffffffffffffffffffffffffff16021790555091602001919060010190610bbe565b5b509050610c249190610c28565b5090565b5b80821115610c41576000816000905550600101610c29565b5090565b6000610c58610c5384611161565b61113c565b90508083825260208201905082856020860282011115610c7b57610c7a61145b565b5b60005b85811015610cab5781610c918882610da9565b845260208401935060208301925050600181019050610c7e565b5050509392505050565b6000610cc8610cc38461118d565b61113c565b905082815260208101848484011115610ce457610ce3611460565b5b610cef8482856112c2565b509392505050565b600082601f830112610d0c57610d0b611456565b5b8135610d1c848260208601610c45565b91505092915050565b60008083601f840112610d3b57610d3a611456565b5b8235905067ffffffffffffffff811115610d5857610d57611451565b5b602083019150836001820283011115610d7457610d7361145b565b5b9250929050565b600082601f830112610d9057610d8f611456565b5b8135610da0848260208601610cb5565b91505092915050565b600081359050610db881611497565b92915050565b600081519050610dcd81611497565b92915050565b60008060208385031215610dea57610de961146a565b5b600083013567ffffffffffffffff811115610e0857610e07611465565b5b610e1485828601610d25565b92509250509250929050565b600060208284031215610e3657610e3561146a565b5b600082013567ffffffffffffffff811115610e5457610e53611465565b5b610e6084828501610d7b565b91505092915050565b600060208284031215610e7f57610e7e61146a565b5b6000610e8d84828501610da9565b91505092915050565b600060208284031215610eac57610eab61146a565b5b6000610eba84828501610dbe565b91505092915050565b60008060408385031215610eda57610ed961146a565b5b6000610ee885828601610da9565b925050602083013567ffffffffffffffff811115610f0957610f08611465565b5b610f1585828601610cf7565b9150509250929050565b610f2881611219565b82525050565b610f378161122b565b82525050565b610f4681611237565b82525050565b6000610f57826111be565b610f6181856111c9565b9350610f718185602086016112d1565b610f7a8161146f565b840191505092915050565b610f8e816112b0565b82525050565b6000610fa16000836111da565b9150610fac82611480565b600082019050919050565b610fc081611254565b82525050565b610fcf81611282565b82525050565b610fde8161128c565b82525050565b610fed8161129c565b82525050565b6000610ffe82610f94565b9150819050919050565b600060208201905061101d6000830184610f1f565b92915050565b60006040820190506110386000830185610f1f565b6110456020830184610f1f565b9392505050565b60006040820190506110616000830185610f2e565b81810360208301526110738184610f4c565b90509392505050565b600060a0820190506110916000830188610f3d565b61109e6020830187610fe4565b6110ab6040830186610fb7565b6110b86060830185610fd5565b6110c56080830184610fd5565b9695505050505050565b60006020820190506110e46000830184610f85565b92915050565b60006020820190506110ff6000830184610fc6565b92915050565b600060608201905061111a6000830186610fc6565b6111276020830185610fc6565b6111346040830184610fc6565b949350505050565b6000611146611157565b90506111528282611304565b919050565b6000604051905090565b600067ffffffffffffffff82111561117c5761117b611422565b5b602082029050602081019050919050565b600067ffffffffffffffff8211156111a8576111a7611422565b5b6111b18261146f565b9050602081019050919050565b600081519050919050565b600082825260208201905092915050565b600081905092915050565b60006111f082611282565b91506111fb83611282565b92508282101561120e5761120d611366565b5b828203905092915050565b600061122482611262565b9050919050565b60008115159050919050565b6000819050919050565b600081905061124f82611483565b919050565b600061ffff82169050919050565b600073ffffffffffffffffffffffffffffffffffffffff82169050919050565b6000819050919050565b600063ffffffff82169050919050565b600067ffffffffffffffff82169050919050565b60006112bb82611241565b9050919050565b82818337600083830152505050565b60005b838110156112ef5780820151818401526020810190506112d4565b838111156112fe576000848401525b50505050565b61130d8261146f565b810181811067ffffffffffffffff8211171561132c5761132b611422565b5b80604052505050565b600061134082611282565b915061134b83611282565b92508261135b5761135a611395565b5b828206905092915050565b7f4e487b7100000000000000000000000000000000000000000000000000000000600052601160045260246000fd5b7f4e487b7100000000000000000000000000000000000000000000000000000000600052601260045260246000fd5b7f4e487b7100000000000000000000000000000000000000000000000000000000600052602160045260246000fd5b7f4e487b7100000000000000000000000000000000000000000000000000000000600052603260045260246000fd5b7f4e487b7100000000000000000000000000000000000000000000000000000000600052604160045260246000fd5b600080fd5b600080fd5b600080fd5b600080fd5b600080fd5b600080fd5b6000601f19601f8301169050919050565b50565b60028110611494576114936113c4565b5b50565b6114a081611282565b81146114ab57600080fd5b5056fea264697066735822122008b3a8cdd88a642952c20ab05e40ca3615aa013db1aa050252c457d82686f74664736f6c63430008070033",
  "devdoc": {
    "author": "Patrick Collins",
    "details": "This implements the Chainlink VRF Version 2",
    "kind": "dev",
    "methods": {
      "checkUpkeep(bytes)": {
        "details": "This is the function that the Chainlink Keeper nodes call they look for `upkeepNeeded` to return True. the following should be true for this to return true: 1. The time interval has passed between raffle runs. 2. The lottery is open. 3. The contract has ETH. 4. Implicity, your subscription is funded with LINK."
      },
      "performUpkeep(bytes)": {
        "details": "Once `checkUpkeep` is returning `true`, this function is called and it kicks off a Chainlink VRF call to get a random winner."
      }
    },
    "title": "A sample Raffle Contract",
    "version": 1
  },
  "userdoc": {
    "kind": "user",
    "methods": {
      "getRaffleState()": {
        "notice": "Getter Functions "
      }
    },
    "notice": "This contract is for creating a sample raffle contract",
    "version": 1
  },
  "storageLayout": {
    "storage": [
      {
        "astId": 214,
        "contract": "contracts/Raffle.sol:Raffle",
        "label": "s_lastTimeStamp",
        "offset": 0,
        "slot": "0",
        "type": "t_uint256"
      },
      {
        "astId": 216,
        "contract": "contracts/Raffle.sol:Raffle",
        "label": "s_recentWinner",
        "offset": 0,
        "slot": "1",
        "type": "t_address"
      },
      {
        "astId": 219,
        "contract": "contracts/Raffle.sol:Raffle",
        "label": "s_players",
        "offset": 0,
        "slot": "2",
        "type": "t_array(t_address_payable)dyn_storage"
      },
      {
        "astId": 222,
        "contract": "contracts/Raffle.sol:Raffle",
        "label": "s_raffleState",
        "offset": 0,
        "slot": "3",
        "type": "t_enum(RaffleState)193"
      }
    ],
    "types": {
      "t_address": {
        "encoding": "inplace",
        "label": "address",
        "numberOfBytes": "20"
      },
      "t_address_payable": {
        "encoding": "inplace",
        "label": "address payable",
        "numberOfBytes": "20"
      },
      "t_array(t_address_payable)dyn_storage": {
        "base": "t_address_payable",
        "encoding": "dynamic_array",
        "label": "address payable[]",
        "numberOfBytes": "32"
      },
      "t_enum(RaffleState)193": {
        "encoding": "inplace",
        "label": "enum Raffle.RaffleState",
        "numberOfBytes": "1"
      },
      "t_uint256": {
        "encoding": "inplace",
        "label": "uint256",
        "numberOfBytes": "32"
      }
    }
  }
}